:020000040800F2
:10000000B00702209902000845150008E314000813
:100010004115000891040008391E00080000000086
:100020000000000000000000000000002116000891
:100030000D0500080000000081150008D916000811
:10004000B3020008B3020008B3020008B3020008BC
:10005000B3020008B3020008B3020008B3020008AC
:10006000B3020008B3020008B3020008B30200089C
:10007000B3020008B3020008B3020008B30200088C
:10008000B3020008B3020008B3020008B30200087C
:10009000B3020008B3020008B3020008B30200086C
:1000A000B3020008B3020008B3020008B30200085C
:1000B000B3020008B3020008B3020008B30200084C
:1000C000B3020008B3020008B3020008B30200083C
:1000D000B3020008E91D0008B3020008B3020008DB
:1000E000B3020008B3020008B3020008B30200081C
:1000F000B3020008B3020008B3020008B30200080C
:10010000B3020008B3020008B3020008B3020008FB
:10011000B3020008B3020008B3020008B3020008EB
:10012000B3020008B3020008B3020008B3020008DB
:10013000B3020008B3020008B3020008B3020008CB
:10014000B3020008B3020008B3020008B3020008BB
:10015000B3020008B3020008B3020008B3020008AB
:10016000B3020008B3020008B3020008B30200089B
:10017000B3020008B3020008B30200080000000048
:10018000B3020008B3020008B3020008B30200087B
:10019000B3020008B3020008B3020008B30200086B
:1001A000B3020008B3020008B3020008B30200085B
:1001B000B3020008B3020008B3020008B30200084B
:1001C000B3020008B302000800000000B3020008F8
:1001D000B3020008B3020008B3020008B30200082B
:1001E000B3020008B3020008B3020008B30200081B
:1001F000B3020008B302000800F002F800F03CF877
:100200000AA090E8000C82448344AAF10107DA4571
:1002100001D100F031F8AFF2090EBAE80F0013F087
:10022000010F18BFFB1A43F001031847841E00009A
:10023000A41E0000103A24BF78C878C1FAD852072B
:1002400024BF30C830C144BF04680C607047000050
:100250000023002400250026103A28BF78C1FBD8CF
:10026000520728BF30C148BF0B6070471FB501F06F
:100270000DFF1FBD10B510BD00F0C6F81146FFF709
:10028000F5FF01F0C1FE00F0F8F803B4FFF7F2FF4C
:1002900003BC01F0D3FD000009488047094800472E
:1002A000FEE7FEE7FEE7FEE7FEE7FEE7FEE7FEE726
:1002B000FEE7FEE704480549054A064B7047000083
:1002C000E1160008F9010008B0010220B007022081
:1002D000B0030220B0030220704700000FB40449AD
:1002E00010B503AA029800F061F810BC5DF814FB89
:1002F0000C00022040EA0103024630B59B0710D1F2
:100300004FF0013400E008C208C91D1B9D4315EAE7
:10031000C41FF8D013F0FF0102F8011B0DD01B0A17
:10032000F8E711F8013B002B02F8013B05D011F86A
:10033000013B002B02F8013BF3D130BD4FF0013CF3
:1003400050F8042B51F8043B9A4215D1A2EB0C0350
:10035000934313EACC130BD150F8042B51F8043B10
:100360009A4209D1A2EB0C03934313EACC13E7D0D2
:100370004FF00000704700BFD01A01BAB1FA81F106
:1003800001F0180122FA01F0CB40C1F12001DBB2EB
:10039000C0B2C01A2CFA01F3D11A914311EAC31169
:1003A000E6D170477047704770477047074B70B58C
:1003B0000D467B4400F011F80446284600F020F872
:1003C00010B14FF0FF3070BD204670BDF31B000030
:1003D00001694A1C02610878704700B58FB0CDE909
:1003E00001310021059105497944CDE903101146F9
:1003F000684600F02EF80FB000BD0000E5FFFFFFDB
:10040000007B00F080007047754600F03DF8AE4676
:1004100005006946534620F00700854618B020B510
:10042000FFF748FFBDE820404FF000064FF00007FF
:100430004FF000084FF0000B21F00701AC46ACE88C
:10044000C009ACE8C009ACE8C009ACE8C0098D46F9
:1004500070472DE9F04106460024D6E90170F568A1
:100460008046304603E04146B847641C3046A84702
:100470000028F8D12046BDE8F0810446AFF30080A3
:100480002046FFF702FF0000004870474C010220A1
:1004900000BFFEE710B500BF00BF00BF00BF00BF38
:1004A000BFF34F8F00BF00BF00BF00BF00BF00BF42
:1004B000BFF36F8F00BF00BF00BF0020114908606D
:1004C0001148006840F400300F49086000BF00BFC9
:1004D00000BFBFF34F8F00BF00BF00BF00BF00BF12
:1004E00000BFBFF36F8F00BF00BF00BF00BF01F0B0
:1004F00049F804484C30006840F0040001494C3190
:10050000086010BD50EF00E014ED00E070470146B8
:1005100091F83500022803D08020486501207047FB
:10052000052081F835000868006820F001000A689D
:1005300010600020F3E70000F8B502460B460021EA
:1005400000250024002000BFE4E0012606FA01F5A2
:100550001E6806EA0504AC4271D15E68022E02D024
:100560005E68122E13D1CF0802F1200656F827003C
:100570004E07F70E0F26BE40B0434F07FF0E1E6911
:10058000BE403043CF0802F1200646F8270010682D
:100590004F000326BE40B0431E7906F003064F000D
:1005A000BE40304310605E68012E08D05E68022EA7
:1005B00005D05E68112E02D05E68122E13D19068AD
:1005C0004F000326BE40B0434F00DE68BE403043BC
:1005D0009060506801268E40B0431E79C6F3001625
:1005E0008E4030435060D0684F000326BE40B04379
:1005F0004F009E68BE403043D0605E6806F0805673
:10060000B6F1805FA8D100BF444E366846F48046FC
:10061000424F3E603E46366806F48046009600BF74
:1006200000BF3F4E8F0856F827008E07370F0F2662
:10063000BE40B0433B4EB24202D100262EE068E0FD
:10064000394EB24201D1012628E0384EB24201D1E2
:10065000022623E0364EB24201D103261EE0354E7B
:10066000B24201D1042619E0334EB24201D105262F
:1006700014E0324EB24201D106260FE0304EB242B3
:1006800001D107260AE02F4EB24201D1082605E02B
:100690002D4EB24201D1092600E00A268F073F0FF6
:1006A000BE4030431E4E8F0846F82700274E306864
:1006B000A0435E6806F48036B6F5803F00D1204343
:1006C000224E3060361D3068A0435E6806F4003666
:1006D000B6F5003F00D120431C4E361D3060361D5C
:1006E0003068A0435E6806F48016B6F5801F00D11E
:1006F0002043164E08363060361D3068A0435E68D1
:1007000006F40016B6F5001F00D120430F4E0C363C
:100710003060491C1029FFF418AFF8BD443802407E
:100720000838014000000240000402400008024076
:10073000000C024000100240001402400018024069
:10074000001C02400020024000240240003C014006
:100750000AB1816101E00B048361704701480068C0
:10076000704700000400022002480068401C014954
:10077000086070470400022010B50848006840F483
:10078000007006490860052000F06AF80F2000F0AC
:1007900007F800F019F8002010BD0000003C0240EE
:1007A00070B50446074800684FF47A71B0FBF1F564
:1007B000284600F093FC00222146501E00F012F85B
:1007C000002070BD00000220704700BF00F01F0233
:1007D000012191404209920002F1E022C2F8001189
:1007E00000BF70472DE9F05F80460D461646002792
:1007F00000F0AAFE074639462A46334601F00700B4
:10080000C0F1070ABAF1040F02D94FF0040A01E05F
:10081000C0F1070AD14600F1040ABAF1070F02D26B
:100820004FF0000A01E0A0F1030AD4464FF0010A9C
:100830000AFA09FAAAF1010A0AEA020A0AFA0CFA01
:100840004FF0010B0BFA0CFBABF1010B0BEA030BA6
:100850004AEA0B042146404600F07EFEBDE8F09FC8
:1008600000BF00F00702064B19684FF6FF0319405E
:10087000044B0B4343EA0221014B196000BF704750
:100880000CED00E00000FA0538B5002400BF204858
:10089000006840F080501E4908600846006800F07B
:1008A0008050009000BF00BF1A48006840F48030BC
:1008B00018490860FFF752FF044607E0FFF74EFFB4
:1008C000001BB0F57A7F01D9032038BD114840687C
:1008D00000F48030B0F5803FF0D10E48006840F45D
:1008E00000300C490860FFF739FF044607E0FFF7C6
:1008F00035FF001BB0F57A7F01D90320E5E70548F5
:10090000406800F40030B0F5003FF0D10020DCE793
:10091000403802400070004070B504460D46002685
:100920006648006800F00F00A8420ED263480068D5
:1009300020F00F002843614908600846006800F075
:100940000F00A84201D0012070BD207800F0020005
:10095000022807D15A48006820F0F000A168084337
:1009600057490860207800F00100002860D06068D6
:10097000012807D1524808380068C0F34040A0B9A8
:100980000120E1E76068022807D14D480838006877
:10099000C0F3406048B90120D6E7494808380068EC
:1009A000C0F3400008B90120CEE74548006820F0B8
:1009B00003006168084342490860FFF7CFFE06461E
:1009C0006068012810D108E0FFF7C8FE801B41F2E3
:1009D0008831884201D90320B6E73948006800F021
:1009E0000C000428F0D123E06068022810D108E050
:1009F000FFF7B4FE801B41F28831884201D9032001
:100A0000A2E72F48006800F00C000828F0D10FE0A2
:100A100008E0FFF7A3FE801B41F28831884201D92C
:100A2000032091E72648006800F00C000028F0D170
:100A30002248006800F00F00A8420ED91F48006845
:100A400020F00F0028431D4908600846006800F0A8
:100A50000F00A84201D0012076E7207800F00400C2
:100A6000042807D11648006820F4E050E1680843E4
:100A700013490860207800F00800082808D11048C1
:100A8000006820F46040216940EAC1000C49086018
:100A900000F04EF80A49096801F0F001F02292FADC
:100AA000A2F2B2FA82F2D140064A515CC84006492D
:100AB00008600F20FFF774FE002045E7003C02406D
:100AC0000838024096200008000002200148006813
:100AD000704700000000022000B5FFF7F7FF07494C
:100AE000096801F4E0514FF4E05292FAA2F2B2FA2E
:100AF00082F2D140024A515CC84000BD0838024031
:100B0000A620000800B5FFF7E1FF0749096801F4D6
:100B100060414FF4604292FAA2F2B2FA82F2D140FE
:100B2000024A515CC84000BD08380240A6200008B7
:100B300070B50021002200230020274C246804F017
:100B40000C0424B1042C04D0082C41D103E0234828
:100B500040E023483EE0204C241F246804F03F017D
:100B60001D4C241F246804F4800484B11C4CB4FB85
:100B7000F1F5194C241F246847F6C076344096FAE4
:100B8000A6F6B6FA86F6F44005FB04F20FE0134C25
:100B9000B4FBF1F5104C241F246847F6C0763440AE
:100BA00096FAA6F6B6FA86F6F44005FB04F20A4C6D
:100BB000241F246804F440344FF4403595FAA5F519
:100BC000B5FA85F5EC40641C6300B2FBF3F001E07C
:100BD000024800BF00BF70BD083802400024F40086
:100BE00040787D0138B504460025207800F00100EA
:100BF000002871D0FE48006800F00C0004280DD0D9
:100C0000FB48006800F00C00082813D1F848001FCA
:100C1000006800F48000B0F5800F0BD1F44808386C
:100C20000068C0F34040002869D06068002866D1A1
:100C3000012038BD00BF6068B0F5803F08D1EC48A6
:100C40000838006840F48030E949083908602EE02F
:100C5000606868B9E6480838006820F48030E449E4
:100C6000083908600846006820F4802008601EE00B
:100C70006068B0F5A02F0DD1DD480838006840F459
:100C80008020DB49083908600846006840F480305D
:100C900008600CE0D6480838006820F48030D44959
:100CA000083908600846006820F48020086000BF0A
:100CB000606890B1FFF752FD054606E0FFF74EFD74
:100CC000401B642801D90320B3E7C94808380068ED
:100CD000C0F340400028F1D011E0FFF73FFD05468A
:100CE00006E0FFF73BFD401B642801D90320A0E785
:100CF000BF4808380068C0F340400028F1D1207890
:100D000000F00200022873D1B948006800F00C001E
:100D100058B1B748006800F00C00082821D1B44849
:100D2000001F006800F48000D8B9B1480838006896
:100D3000C0F3400020B1E068012801D0012078E72D
:100D4000AB480838006820F0F800F82292FAA2F2C6
:100D5000B2FA82F2216991400843A5490839086036
:100D600046E0E06850B3A2480838006840F001004F
:100D70009F4908390860FFF7F1FC054606E0FFF7D8
:100D8000EDFC401B022801D9032052E7984808389F
:100D90000068C0F340000028F1D09548083800688A
:100DA00020F0F800F82292FAA2F2B2FA82F2216957
:100DB000914008438E490839086019E08C4808388A
:100DC000006820F001008A4908390860FFF7C6FC76
:100DD000054606E0FFF7C2FC401B022801D90320AC
:100DE00027E7834808380068C0F340000028F1D1A5
:100DF000207800F00800082836D16069D0B17C481E
:100E00006C30006840F0010079496C310860FFF7F0
:100E1000A5FC054606E0FFF7A1FC401B022801D90E
:100E2000032006E772486C300068C0F340000028D9
:100E3000F1D019E06E486C30006820F001006C4978
:100E40006C310860FFF78AFC054606E0FFF786FC78
:100E5000401B022801D90320EBE665486C3000688E
:100E6000C0F340000028F1D1207800F004000428ED
:100E700071D100BF5E483830006840F080505C4956
:100E8000383108600846006800F08050009000BFCC
:100E900000BF5848006840F4807056490860FFF76A
:100EA0005DFC054606E0FFF759FC401B642801D9AC
:100EB0000320BEE64F48006800F480700028F2D09E
:100EC00000BFA068012808D149486830006840F098
:100ED00001004749683108602DE0A06868B94448BE
:100EE0006830006820F00100414968310860084618
:100EF000006820F0040008601DE0A06805280DD1FE
:100F00003B486830006840F00400394968310860A7
:100F10000846006840F0010008600CE03448683082
:100F2000006820F001003249683108600846006816
:100F300020F00400086000BFA068A8B1FFF70EFC15
:100F4000054609E0FFF70AFC401B41F28831884260
:100F500002D903206DE61BE0254868300068C0F325
:100F600040000028EED013E0FFF7F8FB054608E04C
:100F7000FFF7F4FB401B41F28831884201D903207E
:100F800057E61B4868300068C0F340000028EFD1E6
:100F9000A06988B31648006800F00C00082873D0D8
:100FA000A069022864D112480838006820F08070D7
:100FB0000F4908390860FFF7D1FB054606E0FFF747
:100FC000CDFB401B022801D9032032E6084808382F
:100FD0000068C0F340600028F1D1D4E9070108435C
:100FE00047F6C07292FAA2F2B2FA82F2616A04E0A3
:100FF000083802400070004058E091400843012248
:10100000A16AC2EB51014FF4403292FAA2F2B2FA55
:1010100082F2914008434FF0706292FAA2F2B2FA63
:1010200082F2E16A914008434FF0E04292FAA2F264
:10103000B2FA82F2216B914008431D490860081FF3
:10104000006840F08070091F0860FFF787FB0546C5
:1010500006E0FFF783FB401B022801D90320E8E5E7
:101060001348001F0068C0F340600028F1D01DE065
:101070000F48001F006820F080700D49091F0860AC
:10108000FFF76CFB054607E00EE0FFF767FB401B30
:10109000022801D90320CCE50548001F0068C0F3F1
:1010A00040600028F1D101E00120C2E50020C0E548
:1010B00004380240042808D14FF0E021096941F0CA
:1010C00004014FF0E022116107E04FF0E0210969CF
:1010D00021F004014FF0E0221161704770B5044621
:1010E0002546681EB0F1807F01D301200FE0681E05
:1010F0004FF0E02148610F214FF0FF3000F02CFA53
:1011000000204FF0E021886107200861002070BDB9
:10111000704701460022002391F8692091F86A3057
:1011200042EA0300704700002DE9F04104462068C0
:10113000C569206806682068876805F00F08B8F15F
:10114000000F0AD105F0200038B106F0200020B1D0
:10115000204600F0D2FBBDE8F081B8F1000F79D055
:1011600040F201103840002874D005F0010048B169
:1011700006F4807030B1012021680862E06E40F012
:101180000100E06605F0020048B107F0010030B14F
:10119000022021680862E06E40F00400E06605F07D
:1011A000040048B107F0010030B104202168086252
:1011B000E06E40F00200E06605F0080060B106F065
:1011C000200010B907F0010030B108202168086242
:1011D000E06E40F00800E066E06E58B305F02000D5
:1011E00028B106F0200010B1204600F086FBE06E2A
:1011F00000F0080020B92068806800F0400018B3B3
:10120000204600F05AFB2068806800F04000B8B12A
:101210002068806820F0400021688860606E50B1CE
:101220001748616E0865606EFFF771F910B1606E66
:10123000016D88470DE02046FFF76AFF09E009E0ED
:101240002046FFF765FF04E02046FFF761FF00201E
:10125000E06680E705F0800030B106F0800018B14C
:10126000204600F055FD76E705F0400030B106F06D
:10127000400018B1204600F030FB6CE700BF6AE781
:10128000A318000810B504460CB9012010BDA069D0
:1012900000B100E000BF94F8690028B9002084F88C
:1012A0006800204600F02AF8242084F869002068AD
:1012B000006820F0010021680860204600F062FB11
:1012C000012800D1E2E7606A10B1204600F03AFA46
:1012D0002068406820F49040216848602068806859
:1012E00020F02A00216888602068006840F0010032
:1012F00021680860204600F09AFAC7E710B586B06A
:1013000004462049206888423AD100BF1E48006840
:1013100040F001001C4908600846006800F0010028
:10132000009000BF00BF00BF17481430006840F0B5
:1013300010001549143108600846006800F01000DC
:10134000009000BF00BF48150190022002900120CC
:101350000390022004900720059001A90B48FFF795
:10136000EBF84FF48060019001A90848FFF7E4F81A
:101370002520FFF72AFA032211462520FFF732FA2B
:1013800006B010BD0010014030380240000002409D
:1013900010B5034693F86A0020285BD101B10AB961
:1013A000012010BD00BF93F86800012801D1022080
:1013B000F7E7012083F8680000BF5965A3F85820BB
:1013C000A3F85A2000BF9868B0F5805F0AD1186969
:1013D00020B940F2FF10A3F85C001CE0FF20A3F846
:1013E0005C0018E0986848B9186918B9FF20A3F89C
:1013F0005C0010E07F20A3F85C000CE09868B0F17E
:10140000805F08D1186918B97F20A3F85C0002E05A
:101410003F20A3F85C0000BF0020D866222083F89C
:101420006A0000BF002083F8680000BF18680068E9
:1014300040F480701C6820601868806840F00100EB
:101440001C68A0601868006840F020001C682060DC
:101450000020A6E70220A4E71D4A0168914236D188
:101460001C49098801F4004189BB1A49098801F423
:10147000804171B1184909780A2903D00021154A21
:10148000118024E01349098841F40041114A118078
:101490001DE0114909780D2906D10E49098841F44A
:1014A00080410C4A118012E00B490978094A1288E0
:1014B000C2F30D02094B995406490988491C054A93
:1014C000118011460988C72901DD0021118070476C
:1014D000001001401000022012000220140002201F
:1014E000704700BFFEE7000000B587B000BF12489C
:1014F000006840F00200104908600846006800F0EB
:101500000200019000BF00BF032002900120039061
:1015100004900320059002A90848FFF70DF8012266
:1015200011460648FFF714F9012202210348FFF78C
:101530000FF907B000BD000030380240000402403F
:1015400000BFFEE77047000002480068C0F30220B9
:10155000704700000CED00E010B5002807DA0A071C
:10156000140E054A00F00F031B1FD45403E00A07B2
:10157000130E024A135410BD18ED00E000E400E021
:101580007047000010B50023234C236000BF00BF4C
:1015900000BFBFF34F8F00BF00BF00BF231F1868FD
:1015A000C0F34E3100BFC0F3C90200BF43F6E07381
:1015B00003EA41134FF0404404EA82742343174C7A
:1015C000236000BF00BF1300A2F10102EED10B00A7
:1015D000A1F10101E7D100BF00BF00BFBFF34F8FF2
:1015E00000BF00BF00BF0C4B703B1B6843F480334F
:1015F000094C703C236000BF00BF00BFBFF34F8F9A
:1016000000BF00BF00BF00BF00BF00BFBFF36F8FB0
:1016100000BF00BF00BF10BD84ED00E060EF00E040
:10162000704700002DE9F04194B005468846164603
:101630001F46002400BF2648006840F0805024491F
:1016400008600846006800F08050019000BF00BFAD
:1016500000BF2048006840F440401E49086008462A
:10166000006800F44040019000BF00BF01200790D7
:101670000004089002200D9041050E91CDF83C80A9
:1016800010951196129707A8FFF7ACFA04460CB113
:1016900000BFFEE7FFF7F8F804460CB100BFFEE715
:1016A0000F20029002200390002004904FF4A050DD
:1016B00005904FF480500690072102A8FFF72CF9FF
:1016C00004460CB100BFFEE714B0BDE8F081000095
:1016D000403802400070004010B5FFF745F810BDDB
:1016E0001448006840F4700012490860124800680D
:1016F00040F001001049086000200F4908310860DF
:101700000D4800680D4908400B4908600C48091D48
:101710000860081F006820F48020091F086000206E
:1017200005490C3108604FF00060024980390860BB
:101730007047000088ED00E000380240FFFFF6FE31
:101740001030002490F8241001F0010139B1016833
:10175000496821F40031826A11430268516090F8AF
:10176000241001F0020139B10168496821F4803187
:10177000C26A11430268516090F8241001F004011C
:1017800039B10168496821F48021026B1143026874
:10179000516090F8241001F0080139B101684968DE
:1017A00021F40041426B11430268516090F824100B
:1017B00001F0100139B10168896821F48051826B10
:1017C00011430268916090F8241001F0200139B1B2
:1017D0000168896821F40051C26B1143026891606D
:1017E00090F8241001F0400199B10168496821F492
:1017F0008011026C114302685160016CB1F5801FC9
:1018000007D10168496821F4C001426C11430268A4
:10181000516090F8241001F0800139B101684968E5
:1018200021F40021826C114302685160704738B581
:10183000044600250020E066FEF790FF054620687C
:10184000006800F0080008280CD16FF07E402B469D
:1018500000224FF400110090204600F08EFA08B1EB
:10186000032038BD2068006800F0040004280CD173
:101870006FF07E402B4600224FF4800100902046FE
:1018800000F07BFA08B10320EBE7202084F8690020
:1018900084F86A0000BF002084F8680000BF00BF21
:1018A000DFE770B50546AC6B0020A4F85A00A4F839
:1018B00052002046FFF72CFC70BD0168096821F436
:1018C0009071026811600168896821F00101026865
:1018D0009160202180F86A10704710B50446206896
:1018E000006820F0400021680860202084F869002A
:1018F0002046FFF7F5FD002010BD70B50446B4F892
:101900005C6094F86A00222833D1A068B0F5805F4B
:101910000AD1206940B9656D2068406A304028804E
:10192000606D801C606507E02068406AF1B2084085
:10193000626D511C61651070B4F85A00401E80B28F
:10194000A4F85A0098B92068006820F490702168C3
:1019500008602068806820F00100216888602020ED
:1019600084F86A002046FFF777FD002070BD002054
:10197000FCE72068806940F0080021688861022047
:10198000F4E700002DE9F047044600251026002763
:10199000A846A9462169A068084361690843E1692E
:1019A00040EA010520680068CD49084028432168C5
:1019B00008602068406820F44050E16808432168CE
:1019C0004860216AA06940EA01052068806820F427
:1019D000306028432168886000BFC249206888427F
:1019E00015D1C148006800F0030030B1012808D0CB
:1019F000022804D0032808D105E0012606E00226CB
:101A000004E0042602E0082600E000BFC1E0B74978
:101A10002068884215D1B448006800F00C0030B14D
:101A2000042808D0082804D00C2808D105E0002696
:101A300006E0022604E0042602E0082600E000BFDB
:101A4000A7E0AB492068884215D1A748006800F09C
:101A5000300030B1102808D0202804D0302808D118
:101A600005E0002606E0022604E0042602E008263F
:101A700000E000BF8DE09F492068884215D19A4858
:101A8000006800F0C00030B1402808D0802804D0A1
:101A9000C02808D105E0002606E0022604E004265E
:101AA00002E0082600E000BF73E093492068884206
:101AB00018D18D48006800F4407048B1B0F5807FBF
:101AC0000AD0B0F5007F05D0B0F5407F08D105E021
:101AD000002606E0022604E0042602E0082600E0D4
:101AE00000BF56E085492068884218D17E480068CA
:101AF00000F4406048B1B0F5806F0AD0B0F5006FD7
:101B000005D0B0F5406F08D105E0012606E00226B9
:101B100004E0042602E0082600E000BF39E078492E
:101B20002068884218D17048006800F4405048B1DD
:101B3000B0F5805F0AD0B0F5005F05D0B0F5405F2A
:101B400008D105E0002606E0022604E0042602E0B3
:101B5000082600E000BF1CE06A492068884218D1CE
:101B60006148006800F4404048B1B0F5804F0AD0A9
:101B7000B0F5004F05D0B0F5404F08D105E0002684
:101B800006E0022604E0042602E0082600E000BF8A
:101B900000BF00BFE069B0F5004F52D1042E2BD03A
:101BA00005DC4EB1012E12D0022E3BD11AE0082ED8
:101BB0002DD0102E36D136E0FEF78EFF4000616842
:101BC00000EB5100B0FBF1F01FFA80F82EE0FEF7B9
:101BD00099FF4000616800EB5100B0FBF1F01FFA83
:101BE00080F823E04849606801EB50006168B0FB71
:101BF000F1F01FFA80F819E0FEF79AFF40006168E3
:101C000000EB5100B0FBF1F01FFA80F80EE04FF44A
:101C10008031606801EB50006168B0FBF1F01FFAA1
:101C200080F803E000BF4FF0010900BF00BF4FF68E
:101C3000F07008EA0007C8F3420007432068C76055
:101C40004AE0042E2CD005DC4EB1012E12D0022E1B
:101C50003DD11AE0082E2ED0102E38D138E0FEF7F4
:101C60003BFF616800EB5100B0FBF1F080B22168EE
:101C7000C86030E0FEF746FF616800EB5100B0FB42
:101C8000F1F080B22168C86025E02049606801EB6E
:101C900050006168B0FBF1F080B22168C8601AE0C2
:101CA000FEF746FF616800EB5100B0FBF1F080B237
:101CB0002168C8600FE04FF40041606801EB5000FC
:101CC0006168B0FBF1F080B22168C86003E000BF3A
:101CD0004FF0010900BF00BF4846BDE8F087000093
:101CE000F369FFEF001001409038024000440040CB
:101CF00000480040004C00400050004000140140EB
:101D000000780040007C00400048E8010024F40016
:101D1000014691F8690021282DD1B1F8520068B927
:101D20000868006820F080000B6818600868006888
:101D300040F040000B681860002070478868B0F5DC
:101D4000805F0BD1086948B9CA6C1088C0F30800DD
:101D50000B689862C86C801CC86405E0CB6C581C8A
:101D6000C86418780B689862B1F85200401EA1F858
:101D700052000020E1E70220DFE72DE9F0410446B0
:101D80000D4617469846069E21E0701CF8B12EB10C
:101D9000FEF7E4FCA0EB0800B04218D3206800680E
:101DA00020F4D070216808602068806820F001006D
:101DB00021688860202084F8690084F86A0000BFE8
:101DC000002084F8680000BF0320BDE8F08120688F
:101DD000C0692840A84201D1012000E00020B8429B
:101DE000D3D00020F1E7000070B500240F4D10485B
:101DF000FFF79AF900BF03E0641CAC4200D904E08D
:101E00000B48FFF786F92028F6D100BF002403E035
:101E1000641CAC4200D906E0012206490448FFF7E1
:101E2000B7FA0028F4D100BF70BD0000FFFF010029
:101E3000DC0002201200022000BFFEE700BF704756
:101E400010B504460420FFF735F90148046010BDC1
:101E50000800022030B50446002504E04FF47A70F3
:101E600000F004F86D1CA542F8D330BD70B50346F0
:101E700000224FF0E02675690D4E366803FB06F42C
:101E80004FF0E026B16910E04FF0E026B0698842DB
:101E90000BD0884202D20E1A324402E02E1A0E44AF
:101EA00032440146A24200D300E0EDE700BF70BD1E
:101EB000080002202DE9F047B2B0804689469246DC
:101EC0002CA430A52FA62FA0FEF708FA684600F034
:101ED00079F807462EA16846FEF730FA20B90022AD
:101EE00001212C48FEF734FC2BA16846FEF726FAA8
:101EF00020B9002202212748FEF72AFC4FF47A700D
:101F0000FFF7A8FF012202212248FEF721FC01224F
:101F100011462048FEF71CFC21A0FEF7DFF96846B9
:101F200000F050F807461AA16846FEF707FA20B9F4
:101F3000002201211748FEF70BFC17A16846FEF7A7
:101F4000FDF920B9002202211248FEF701FC4FF4EE
:101F50007A70FFF77FFF012202210E48FEF7F8FB9F
:101F6000012211460B48FEF7F3FB002032B0BDE81A
:101F7000F087000041542B43574D4F44453D310DF0
:101F80000A00000041542B5253540D0A0000000077
:101F90004F4B0000000402404552524F52000000D7
:101FA00078787878780D0A0000BF054AD26902F087
:101FB0004002002AF9D0C2B2014B9A627047000079
:101FC000001001402DE9F0410446002500260B4F8A
:101FD00001E0761C00BF0A48008800F40040002899
:101FE000F7D00748057807492046FEF783F9002017
:101FF0006055034908802846BDE8F081FFFF0100D5
:10200000100002201400022010B50024FEF742FA4E
:10201000FEF7B2FB0923022219214FF4D870FFF713
:1020200001FBD820FFF70CFF4FF4612000F012F8FD
:10203000FFF75AFA41F6907202A104A0FFF73AFFA7
:10204000002010BD62626262000000006161616197
:102050000000000010B5044609480A490860084617
:10206000446000218160C160016181610C21416196
:10207000FFF708F9012204490248FFF789F910BD6A
:1020800000100140DC000220120002204FF04070DE
:10209000E1EE100A7047000000000000000001029D
:1020A0000304060708090000000001020304000001
:1020B000D0200008000002201400000034020008B4
:1020C000E4200008140002209C07000050020008D1
:1020D0000024F400000000000000000000000000E8
:0420E00000000000FC
:04000005080001F9F5
:00000001FF
